{
  "_format": "hh-sol-artifact-1",
  "contractName": "Token",
  "sourceName": "contracts/Token.sol",
  "abi": [
    {
      "inputs": [],
      "stateMutability": "nonpayable",
      "type": "constructor"
    },
    {
      "inputs": [],
      "name": "contractOwner",
      "outputs": [
        {
          "internalType": "address",
          "name": "",
          "type": "address"
        }
      ],
      "stateMutability": "view",
      "type": "function"
    },
    {
      "inputs": [
        {
          "internalType": "address payable",
          "name": "_toAddress",
          "type": "address"
        }
      ],
      "name": "giveToken",
      "outputs": [],
      "stateMutability": "nonpayable",
      "type": "function"
    },
    {
      "inputs": [
        {
          "internalType": "address",
          "name": "_toAddress",
          "type": "address"
        }
      ],
      "name": "sendVote",
      "outputs": [],
      "stateMutability": "nonpayable",
      "type": "function"
    },
    {
      "inputs": [
        {
          "internalType": "address",
          "name": "",
          "type": "address"
        }
      ],
      "name": "tokenCount",
      "outputs": [
        {
          "internalType": "bool",
          "name": "cantVote",
          "type": "bool"
        },
        {
          "internalType": "bool",
          "name": "hasToken",
          "type": "bool"
        }
      ],
      "stateMutability": "view",
      "type": "function"
    },
    {
      "inputs": [],
      "name": "viewContractOwner",
      "outputs": [
        {
          "internalType": "address",
          "name": "",
          "type": "address"
        }
      ],
      "stateMutability": "view",
      "type": "function"
    },
    {
      "inputs": [
        {
          "internalType": "address",
          "name": "_viewAddress",
          "type": "address"
        }
      ],
      "name": "viewTokenCount",
      "outputs": [
        {
          "internalType": "bool",
          "name": "",
          "type": "bool"
        },
        {
          "internalType": "bool",
          "name": "",
          "type": "bool"
        }
      ],
      "stateMutability": "view",
      "type": "function"
    },
    {
      "inputs": [
        {
          "internalType": "address",
          "name": "_viewAddress",
          "type": "address"
        }
      ],
      "name": "viewVoteCount",
      "outputs": [
        {
          "internalType": "uint256",
          "name": "",
          "type": "uint256"
        }
      ],
      "stateMutability": "view",
      "type": "function"
    },
    {
      "inputs": [
        {
          "internalType": "address",
          "name": "",
          "type": "address"
        }
      ],
      "name": "voteCount",
      "outputs": [
        {
          "internalType": "uint256",
          "name": "",
          "type": "uint256"
        }
      ],
      "stateMutability": "view",
      "type": "function"
    }
  ],
  "bytecode": "0x608060405234801561001057600080fd5b50336000806101000a81548173ffffffffffffffffffffffffffffffffffffffff021916908373ffffffffffffffffffffffffffffffffffffffff160217905550610aa8806100606000396000f3fe608060405234801561001057600080fd5b50600436106100885760003560e01c8063a0206f691161005b578063a0206f691461013a578063c9a05bc01461016b578063ce606ee014610189578063e26835ce146101a757610088565b806356225a091461008d5780635e3cd7bc146100be5780637cde6a76146100ee578063837293681461010a575b600080fd5b6100a760048036038101906100a2919061073f565b6101c3565b6040516100b5929190610842565b60405180910390f35b6100d860048036038101906100d3919061073f565b610201565b6040516100e591906108cb565b60405180910390f35b6101086004803603810190610103919061073f565b610219565b005b610124600480360381019061011f919061073f565b610452565b60405161013191906108cb565b60405180910390f35b610154600480360381019061014f919061073f565b61049b565b604051610162929190610842565b60405180910390f35b610173610547565b6040516101809190610827565b60405180910390f35b610191610570565b60405161019e9190610827565b60405180910390f35b6101c160048036038101906101bc9190610768565b610594565b005b60016020528060005260406000206000915090508060000160009054906101000a900460ff16908060000160019054906101000a900460ff16905082565b60026020528060005260406000206000915090505481565b60001515600160003373ffffffffffffffffffffffffffffffffffffffff1673ffffffffffffffffffffffffffffffffffffffff16815260200190815260200160002060000160009054906101000a900460ff161515146102af576040517f08c379a00000000000000000000000000000000000000000000000000000000081526004016102a6906108ab565b60405180910390fd5b60011515600160003373ffffffffffffffffffffffffffffffffffffffff1673ffffffffffffffffffffffffffffffffffffffff16815260200190815260200160002060000160019054906101000a900460ff16151514610345576040517f08c379a000000000000000000000000000000000000000000000000000000000815260040161033c906108ab565b60405180910390fd5b60018060003373ffffffffffffffffffffffffffffffffffffffff1673ffffffffffffffffffffffffffffffffffffffff16815260200190815260200160002060000160006101000a81548160ff0219169083151502179055506000600160008373ffffffffffffffffffffffffffffffffffffffff1673ffffffffffffffffffffffffffffffffffffffff16815260200190815260200160002060000160016101000a81548160ff021916908315150217905550600260008273ffffffffffffffffffffffffffffffffffffffff1673ffffffffffffffffffffffffffffffffffffffff168152602001908152602001600020600081548092919061044a90610951565b919050555050565b6000600260008373ffffffffffffffffffffffffffffffffffffffff1673ffffffffffffffffffffffffffffffffffffffff168152602001908152602001600020549050919050565b600080600160008473ffffffffffffffffffffffffffffffffffffffff1673ffffffffffffffffffffffffffffffffffffffff16815260200190815260200160002060000160009054906101000a900460ff16600160008573ffffffffffffffffffffffffffffffffffffffff1673ffffffffffffffffffffffffffffffffffffffff16815260200190815260200160002060000160019054906101000a900460ff1691509150915091565b60008060009054906101000a900473ffffffffffffffffffffffffffffffffffffffff16905090565b60008054906101000a900473ffffffffffffffffffffffffffffffffffffffff1681565b3373ffffffffffffffffffffffffffffffffffffffff1660008054906101000a900473ffffffffffffffffffffffffffffffffffffffff1673ffffffffffffffffffffffffffffffffffffffff1614610622576040517f08c379a00000000000000000000000000000000000000000000000000000000081526004016106199061088b565b60405180910390fd5b60001515600160008373ffffffffffffffffffffffffffffffffffffffff1673ffffffffffffffffffffffffffffffffffffffff16815260200190815260200160002060000160009054906101000a900460ff161515146106b8576040517f08c379a00000000000000000000000000000000000000000000000000000000081526004016106af9061086b565b60405180910390fd5b60018060008373ffffffffffffffffffffffffffffffffffffffff1673ffffffffffffffffffffffffffffffffffffffff16815260200190815260200160002060000160016101000a81548160ff02191690831515021790555050565b60008135905061072481610a44565b92915050565b60008135905061073981610a5b565b92915050565b60006020828403121561075157600080fd5b600061075f84828501610715565b91505092915050565b60006020828403121561077a57600080fd5b60006107888482850161072a565b91505092915050565b61079a816108f7565b82525050565b6107a98161091b565b82525050565b60006107bc6010836108e6565b91506107c7826109c9565b602082019050919050565b60006107df6015836108e6565b91506107ea826109f2565b602082019050919050565b60006108026019836108e6565b915061080d82610a1b565b602082019050919050565b61082181610947565b82525050565b600060208201905061083c6000830184610791565b92915050565b600060408201905061085760008301856107a0565b61086460208301846107a0565b9392505050565b60006020820190508181036000830152610884816107af565b9050919050565b600060208201905081810360008301526108a4816107d2565b9050919050565b600060208201905081810360008301526108c4816107f5565b9050919050565b60006020820190506108e06000830184610818565b92915050565b600082825260208201905092915050565b600061090282610927565b9050919050565b600061091482610927565b9050919050565b60008115159050919050565b600073ffffffffffffffffffffffffffffffffffffffff82169050919050565b6000819050919050565b600061095c82610947565b91507fffffffffffffffffffffffffffffffffffffffffffffffffffffffffffffffff82141561098f5761098e61099a565b5b600182019050919050565b7f4e487b7100000000000000000000000000000000000000000000000000000000600052601160045260246000fd5b7f557365722063616e6e6f7420766f746500000000000000000000000000000000600082015250565b7f596f7520617265206e6f7420746865206f776e65720000000000000000000000600082015250565b7f596f7520646f206e6f742068617665207468652066756e647300000000000000600082015250565b610a4d816108f7565b8114610a5857600080fd5b50565b610a6481610909565b8114610a6f57600080fd5b5056fea26469706673582212208b6fee899ffeef56d929aa945e2c96d2c4ad6a54871f21eca1110b267080670e64736f6c63430008040033",
  "linkReferences": {},
  "deployedLinkReferences": {}
}