{
  "_format": "hh-sol-artifact-1",
  "contractName": "Greeter",
  "sourceName": "contracts/Greeter.sol",
  "abi": [
    {
      "inputs": [
        {
          "internalType": "string",
          "name": "_greeting",
          "type": "string"
        }
      ],
      "stateMutability": "nonpayable",
      "type": "constructor"
    },
    {
      "inputs": [],
      "name": "greet",
      "outputs": [
        {
          "internalType": "string",
          "name": "",
          "type": "string"
        }
      ],
      "stateMutability": "view",
      "type": "function"
    },
    {
      "inputs": [],
      "name": "retrieveAccount",
      "outputs": [
        {
          "internalType": "address",
          "name": "",
          "type": "address"
        }
      ],
      "stateMutability": "view",
      "type": "function"
    },
    {
      "inputs": [
        {
          "internalType": "string",
          "name": "_greeting",
          "type": "string"
        }
      ],
      "name": "setGreeting",
      "outputs": [],
      "stateMutability": "nonpayable",
      "type": "function"
    }
  ],
  "bytecode": "0x60806040523480156200001157600080fd5b5060405162000cbf38038062000cbf833981810160405281019062000037919062000278565b6200006760405180606001604052806022815260200162000c9d60229139826200008760201b620001ff1760201c565b80600090805190602001906200007f92919062000156565b5050620004c5565b620001298282604051602401620000a0929190620002fe565b6040516020818303038152906040527f4b5c4277000000000000000000000000000000000000000000000000000000007bffffffffffffffffffffffffffffffffffffffffffffffffffffffff19166020820180517bffffffffffffffffffffffffffffffffffffffffffffffffffffffff83818316178352505050506200012d60201b60201c565b5050565b60008151905060006a636f6e736f6c652e6c6f679050602083016000808483855afa5050505050565b8280546200016490620003ea565b90600052602060002090601f016020900481019282620001885760008555620001d4565b82601f10620001a357805160ff1916838001178555620001d4565b82800160010185558215620001d4579182015b82811115620001d3578251825591602001919060010190620001b6565b5b509050620001e39190620001e7565b5090565b5b8082111562000202576000816000905550600101620001e8565b5090565b60006200021d620002178462000362565b62000339565b9050828152602081018484840111156200023657600080fd5b62000243848285620003b4565b509392505050565b600082601f8301126200025d57600080fd5b81516200026f84826020860162000206565b91505092915050565b6000602082840312156200028b57600080fd5b600082015167ffffffffffffffff811115620002a657600080fd5b620002b4848285016200024b565b91505092915050565b6000620002ca8262000398565b620002d68185620003a3565b9350620002e8818560208601620003b4565b620002f381620004b4565b840191505092915050565b600060408201905081810360008301526200031a8185620002bd565b90508181036020830152620003308184620002bd565b90509392505050565b60006200034562000358565b905062000353828262000420565b919050565b6000604051905090565b600067ffffffffffffffff82111562000380576200037f62000485565b5b6200038b82620004b4565b9050602081019050919050565b600081519050919050565b600082825260208201905092915050565b60005b83811015620003d4578082015181840152602081019050620003b7565b83811115620003e4576000848401525b50505050565b600060028204905060018216806200040357607f821691505b602082108114156200041a576200041962000456565b5b50919050565b6200042b82620004b4565b810181811067ffffffffffffffff821117156200044d576200044c62000485565b5b80604052505050565b7f4e487b7100000000000000000000000000000000000000000000000000000000600052602260045260246000fd5b7f4e487b7100000000000000000000000000000000000000000000000000000000600052604160045260246000fd5b6000601f19601f8301169050919050565b6107c880620004d56000396000f3fe608060405234801561001057600080fd5b50600436106100415760003560e01c8063a413686214610046578063c973abc914610062578063cfae321714610080575b600080fd5b610060600480360381019061005b919061046e565b61009e565b005b61006a610165565b60405161007791906104f7565b60405180910390f35b61008861016d565b6040516100959190610512565b60405180910390f35b61014b60405180606001604052806023815260200161077060239139600080546100c79061069d565b80601f01602080910402602001604051908101604052809291908181526020018280546100f39061069d565b80156101405780601f1061011557610100808354040283529160200191610140565b820191906000526020600020905b81548152906001019060200180831161012357829003601f168201915b50505050508361029b565b8060009080519060200190610161929190610363565b5050565b600033905090565b60606000805461017c9061069d565b80601f01602080910402602001604051908101604052809291908181526020018280546101a89061069d565b80156101f55780601f106101ca576101008083540402835291602001916101f5565b820191906000526020600020905b8154815290600101906020018083116101d857829003601f168201915b5050505050905090565b6102978282604051602401610215929190610534565b6040516020818303038152906040527f4b5c4277000000000000000000000000000000000000000000000000000000007bffffffffffffffffffffffffffffffffffffffffffffffffffffffff19166020820180517bffffffffffffffffffffffffffffffffffffffffffffffffffffffff838183161783525050505061033a565b5050565b6103358383836040516024016102b39392919061056b565b6040516020818303038152906040527f2ced7cef000000000000000000000000000000000000000000000000000000007bffffffffffffffffffffffffffffffffffffffffffffffffffffffff19166020820180517bffffffffffffffffffffffffffffffffffffffffffffffffffffffff838183161783525050505061033a565b505050565b60008151905060006a636f6e736f6c652e6c6f679050602083016000808483855afa5050505050565b82805461036f9061069d565b90600052602060002090601f01602090048101928261039157600085556103d8565b82601f106103aa57805160ff19168380011785556103d8565b828001600101855582156103d8579182015b828111156103d75782518255916020019190600101906103bc565b5b5090506103e591906103e9565b5090565b5b808211156104025760008160009055506001016103ea565b5090565b6000610419610414846105dc565b6105b7565b90508281526020810184848401111561043157600080fd5b61043c84828561065b565b509392505050565b600082601f83011261045557600080fd5b8135610465848260208601610406565b91505092915050565b60006020828403121561048057600080fd5b600082013567ffffffffffffffff81111561049a57600080fd5b6104a684828501610444565b91505092915050565b6104b881610629565b82525050565b60006104c98261060d565b6104d38185610618565b93506104e381856020860161066a565b6104ec8161075e565b840191505092915050565b600060208201905061050c60008301846104af565b92915050565b6000602082019050818103600083015261052c81846104be565b905092915050565b6000604082019050818103600083015261054e81856104be565b9050818103602083015261056281846104be565b90509392505050565b6000606082019050818103600083015261058581866104be565b9050818103602083015261059981856104be565b905081810360408301526105ad81846104be565b9050949350505050565b60006105c16105d2565b90506105cd82826106cf565b919050565b6000604051905090565b600067ffffffffffffffff8211156105f7576105f661072f565b5b6106008261075e565b9050602081019050919050565b600081519050919050565b600082825260208201905092915050565b60006106348261063b565b9050919050565b600073ffffffffffffffffffffffffffffffffffffffff82169050919050565b82818337600083830152505050565b60005b8381101561068857808201518184015260208101905061066d565b83811115610697576000848401525b50505050565b600060028204905060018216806106b557607f821691505b602082108114156106c9576106c8610700565b5b50919050565b6106d88261075e565b810181811067ffffffffffffffff821117156106f7576106f661072f565b5b80604052505050565b7f4e487b7100000000000000000000000000000000000000000000000000000000600052602260045260246000fd5b7f4e487b7100000000000000000000000000000000000000000000000000000000600052604160045260246000fd5b6000601f19601f830116905091905056fe4368616e67696e67206772656574696e672066726f6d202725732720746f2027257327a264697066735822122075b47f446d9fe782f9a53dce38de2aa70b453439078c1c453f3ed309734e21fc64736f6c634300080400334465706c6f79696e67206120477265657465722077697468206772656574696e673a",
  "linkReferences": {},
  "deployedLinkReferences": {}
}